:060000000A128A110C280F
:10000800FE00030EF1000A08F2000A128A114328C2
:100018000A128A110F28F50183010A128A1114287D
:100028000A128A112C200A128A110130F30073086F
:100038008312031388071A30F400F830F300F30B27
:100048002328F40B2328000019280A128A110C28E7
:100058008316031788018901831603138501880114
:1000680070308F040F1481128111073081043D30E4
:100078008312031381000B118B168B1708000B1DBD
:100088004628472850280130F000700883120313CF
:1000980085073D3081000B1172088A00710E8300BC
:0600A800FE0E7E0E0900B1
:08400000FF3FFF3FFF3FFF3FC0
:04400E00B420FF3F9C
:00000001FF
