:060000000A128A110C280F
:10000800FE00030EF1000A08F2000A128A115D28A8
:100018000A128A110F28F701F801F901FA01FB0108
:1000280083010A128A1195288316031789018316FA
:100038000313860187018801831203138501860152
:10004800870188017030831603138F040F148112FF
:100058008111073081043D308312031381000B1195
:100068008B160C13831603130C178B170330831688
:1000780003178800033083160313850083120313C4
:100088001F083F3980389F00C3309F050330F400B4
:100098009730F300F30B4E28F40B4E2853288316A1
:1000A80003139F131F129F12831203131F140C13A1
:1000B80008000B1D602861286A280130F0007008CC
:1000C8008312031386073D3081000B11831203133B
:1000D8000C1F6F2870288E281F0CF000700C0F3929
:1000E800003A031D7828792880281E0887001F08F1
:1000F800C33904389F008D281F0CF000700C0F398D
:10010800013A031D882889288D281E088800C330D5
:100118009F050C1372088A00710E8300FE0E7E0E76
:1001280009000A128A1118200A128A11831203136D
:100138009F140C1FA028A1289D281A30F600F8301B
:10014800F500F50BA528F60BA52800009A280A1239
:040158008A110C28D4
:08400000FF3FFF3FFF3FFF3FC0
:04400E00D420FF3F7C
:00000001FF
